:020000040800F2
:1000000000500020E5260008F1080008F308000869
:10001000F5080008F7080008F908000800000000CB
:10002000000000000000000000000000FB080008C5
:10003000FD08000800000000FF0800080109000892
:100040002D2700082D2700082D2700082D27000840
:100050002D2700082D2700082D2700082D27000830
:100060002D2700082D2700082D2700082D27000820
:100070002D2700082D2700082D2700082D27000810
:100080002D2700082D2700082D2700082D27000800
:100090002D2700082D2700082D2700082D270008F0
:1000A0002D2700082D2700082D2700082D270008E0
:1000B0002D2700082D2700082D2700082D270008D0
:1000C0002D2700082D2700082D2700082D270008C0
:1000D0002D2700082D2700082D2700082D270008B0
:1000E0002D2700082D2700082D27000800000000FC
:1000F0000000000000000000000000000000000000
:0C01000000000000000000005FF808F1A3
:10010C000348044B834202D0034B03B1184770479A
:10011C003C0400203C040020000000000548064977
:10012C00091A891001EBD171491002D0034B03B1AC
:10013C00184770473C0400203C04002000000000DD
:10014C0010B5064C237843B9FFF7DAFF044B13B113
:10015C000448AFF300800123237010BD400400203D
:10016C00000000004427000808B5044B1BB10449EB
:10017C000448AFF30080BDE80840CFE70000000062
:10018C004404002044270008002301461A46184660
:10019C0000F088B838B50A4C0A4D641BA4100AD07C
:1001AC0004F18043013B05EB8305013C55F8043910
:1001BC009847002CF9D1BDE8384002F0C3BA00BF13
:1001CC00AC270008A827000870B50D4E0D4D761B06
:1001DC00B61006D00024013455F8043B9847A642CB
:1001EC00F9D1094E094D02F0A7FA761BB61006D0CC
:1001FC000024013455F8043B9847A642F9D170BD50
:10020C00A0270008A0270008A8270008A02700089E
:10021C00F0B4860743D0541E002A3ED0CAB203461F
:10022C0002E014F1FF3438D303F8012B9D07F8D109
:10023C00032C2BD9CDB245EA05250F2C45EA0545F3
:10024C0016D9A4F110073F0903F1200606EB071697
:10025C0003F1100242E9045542E902551032B24250
:10026C00F8D104F00F040137032C03EB07130DD95D
:10027C001E462246043A032A46F8045BFAD8221F8B
:10028C0022F003020432134404F003042CB1C9B26B
:10029C001C4403F8011B9C42FBD1F0BC7047144674
:1002AC000346C5E7F0B4174C2568D5F848410CB3A4
:1002BC0065681F2D23DC38B900206B1C0235636088
:1002CC0044F82510F0BC7047012604EB850CCCF8E3
:1002DC008820D4F8887106FA05F217430228C4F86E
:1002EC008871CCF80831E7D1D4F88C311A43C4F8B2
:1002FC008C21E1E705F5A674C5F84841D8E74FF025
:10030C00FF30DFE78427000830B589B0002404945F
:10031C00059406940794254B9A6942F010029A6151
:10032C009A6902F010020092009A9A6942F0200237
:10033C009A619A6902F020020192019A9A6942F03C
:10034C0004029A619A6902F004020292029A9A6972
:10035C0042F008029A619B6903F008030393039B24
:10036C00134D22464FF20301284600F062FE202373
:10037C0004930594069404A90E4800F067FD4FF20F
:10038C00030304930123059306940223079304A902
:10039C00284600F05BFD042304930594069404A9FD
:1003AC00284600F053FD09B030BD00BF00100240DC
:1003BC00000C01400008014072B6FEE700B585B0A4
:1003CC0000230193029303930F48104A0260836049
:1003DC00037303754FF46022C26143600123036110
:1003EC0000F0DAFB60B9012301930293002303931D
:1003FC0001A9054800F0CEFA20B905B05DF804FB60
:10040C00FFF7DAFFFFF7D8FF440500200024014076
:10041C0000B585B000230193029303931048114A51
:10042C0002608360037303754FF46022C261436002
:10043C000123036100F0B0FB68B90323019301238E
:10044C0002930023039301A9054800F0A3FA20B9F5
:10045C0005B05DF804FBFFF7AFFFFFF7ADFF00BF82
:10046C00600400200028014008B50A480A4B0360CC
:10047C000A4B436000238360C3604FF480420261E7
:10048C0043618361C361036201F03AF800B908BDAE
:10049C00FFF792FF9004002000540040A08601005A
:1004AC0008B50A480A4B03600A4B4360002383607B
:1004BC00C3604FF48042026143618361C361036294
:1004CC0001F01EF800B908BDFFF776FFE404002028
:1004DC0000580040A086010000B595B024220021F0
:1004EC000BA8FFF795FE002305930693079308933B
:1004FC000993019302930393049302230A93012318
:10050C000E9310230F930AA801F0C4FCA8B90F2373
:10051C0005930021069107910891099105A801F016
:10052C00F9FE60B9022301930023039301A801F0A3
:10053C00CBFF30B915B05DF804FBFFF73DFFFFF7BB
:10054C003BFFFFF739FF000000B585B000F0FEF966
:10055C00FFF7C2FFFFF7D8FEFFF730FFFFF758FF9A
:10056C00FFF782FFFFF79CFF724C0022012120460F
:10057C0000F05FFD00220221204600F05AFD01220E
:10058C004FF48051204600F054FD01224FF40051ED
:10059C00204600F04EFD01224FF48041204600F031
:1005AC0048FD01224FF40041204600F042FD042199
:1005BC00204600F037FD40F04003DBB25E4A13806A
:1005CC005E4C4FF480720023C4E900235C4D23265B
:1005DC000096022322462021284601F06BF84FF4A6
:1005EC0000720023C4E90023009602232246202136
:1005FC00284601F05FF84FF440720023C4E9002351
:10060C000096022322462021284601F053F84FF48D
:10061C00C0620023C4E90023009602232246202155
:10062C00284601F047F84FF4E0620023C4E90023A8
:10063C000096022322462021284601F03BF84FF475
:10064C0000620023C4E900230096022322462021E5
:10065C00284601F02FF84FF418620023C4E9002358
:10066C000096022322462021284601F023F84FF45D
:10067C0021620023C4E90023009602232246202194
:10068C00284601F017F82F4C204600F085FA2E482A
:10069C0000F082FA204600F007FBC8B1254C00227E
:1006AC004FF48051204600F0C4FC00224FF400515E
:1006BC00204600F0BEFC00224FF48041204600F0A2
:1006CC00B8FC00224FF40041204600F0B2FC0EE0D2
:1006DC001D4800F0E9FAE1E7184BFF200021C3E9BF
:1006EC000001232301221549184801F09DF823230A
:1006FC00012212490968154801F062F90028F6D167
:10070C000E4B1B78002BF2D1232302930123019370
:10071C000A4A009200222021094801F00BFA002815
:10072C00DAD10649D1E9002322F020041D46C1E9A3
:10073C000045D6E7000C014040050020380500209C
:10074C00E4040020440500206004002090040020F4
:10075C0082B00E4B9A6942F001029A619A6902F0DA
:10076C0001020092009ADA6942F08052DA61DB6988
:10077C0003F080530193019B054A536823F0E06317
:10078C0043F08063536002B0704700BF001002401A
:10079C000000014000B589B0002304930593069333
:1007AC0007930368204A934205D0204A93421ED0F7
:1007BC0009B05DF804FB1E4B9A6942F400729A6111
:1007CC009A6902F400720092009A9A6942F004024B
:1007DC009A619B6903F004030193019B1223049318
:1007EC000323059304A9134800F030FBE0E7104BFA
:1007FC009A6942F480629A619A6902F48062029268
:10080C00029A9A6942F004029A619B6903F004030C
:10081C000393039B0C2304930323059304A905481A
:10082C0000F014FBC4E700BF002401400028014085
:10083C00001002400008014010B588B0002304935A
:10084C000593069307930368224A934204D0224AE5
:10085C0093421FD008B010BD204CA36943F008038D
:10086C00A361A36903F008030093009BC0230493C6
:10087C00122305930323079304A9194800F0E6FA01
:10088C00E36943F40013E361E36903F40013019398
:10089C00019BDFE7114CA36943F00803A361A36933
:1008AC0003F008030293029B4FF44063049312235A
:1008BC0005930323079304A9094800F0C7FAE369D9
:1008CC0043F48003E361E36903F480030393039B24
:1008DC00C0E700BF00540040005800400010024028
:1008EC00000C0140FEE7FEE7FEE7FEE7FEE770477F
:1008FC007047704708B500F03BF808BD7047000022
:10090C0010B504460E4B18784FF47A73B3FBF0F322
:10091C000C4A1068B0FBF3F000F082FA68B90F2CA7
:10092C0001D901200AE0002221464FF0FF3000F0EF
:10093C0043FA054B1C60002000E0012010BD00BFF5
:10094C0034040020300400203804002008B5074A85
:10095C00136843F010031360032000F01BFA00200F
:10096C00FFF7CEFFFFF7F4FE002008BD0020024089
:10097C00034A1168034B1B780B441360704700BF8C
:10098C007405002034040020014B1868704700BF28
:10099C007405002030B482B00023019390F8243009
:1009AC00012B00F08B800246012380F824304B6829
:1009BC00062B29D80568686B03EB8303053B1F24C2
:1009CC009C4020EA04000C6804FA03F303436B63B5
:1009DC000B68092B38D91568E86803EB43031E3BF9
:1009EC0007249C4020EA04008C6804FA03F30343B8
:1009FC00EB600B68103B012B34D90020002382F8EC
:100A0C00243002B030BC70470C2B0ED80568286B14
:100A1C0003EB8303233B1F249C4020EA04000C6857
:100A2C0004FA03F303432B63D2E70568E86A03EB8C
:100A3C008303413B1F249C4020EA04000C6804FA09
:100A4C0003F30343EB62C3E71568286903EB430325
:100A5C0007249C4020EA04008C6804FA03F3034347
:100A6C002B61C6E713681648834205D0936A43F09E
:100A7C00200393620120C1E7986810F4000F1BD18A
:100A8C00986840F4000098600B68102B01D000208F
:100A9C00B4E70C4B1B680C49A1FB03139B0C03EB39
:100AAC0083035900019102E0019B013B0193019BDF
:100ABC00002BF9D10020A1E700209FE70220A0E73E
:100ACC00002401403004002083DE1B4330B583B08A
:100ADC000023019303689A6812F0010F2ED19A68D3
:100AEC0042F001029A60174B1B68174AA2FB0323C2
:100AFC009B0C019302E0019B013B0193019B002B9A
:100B0C00F9D10446FFF740FF054623689B6813F0B4
:100B1C00010F11D1FFF738FF401B0228F5D9A36A4A
:100B2C0043F01003A362E36A43F00103E362002382
:100B3C0084F82430012002E0002000E0002003B003
:100B4C0030BD00BF3004002083DE1B4338B5036882
:100B5C009A6812F0010F01D1002038BD04469A6842
:100B6C0022F001029A60FFF70FFF054623689B688D
:100B7C0013F0010F0ED0FFF707FF401B0228F5D929
:100B8C00A36A43F01003A362E36A43F00103E36238
:100B9C000120E2E70020E0E700287FD038B50446CA
:100BAC00836A002B33D02046FFF7D0FFA36A13F0E3
:100BBC0010036DD100286BD1A26A22F4885222F066
:100BCC00020242F00202A2626268E1690A43257BDA
:100BDC0042EA4502A168B1F5807F21D001291CD0E1
:100BEC00217D01291FD02568696821F469410B43D7
:100BFC006B6021688D682A4B2B4013438B60A36874
:100C0C00B3F5807F20D0012B1ED000211FE0C362E2
:100C1C0080F82430FFF7BEFDC5E74FF48073DFE7A3
:100C2C004FF48073DCE735B9A169013943EA4133EC
:100C3C0043F40063D7E7A16A41F02001A162E16AA5
:100C4C0041F00101E162CEE72369013B19052568FA
:100C5C00EB6A23F470030B43EB6223689968114B26
:100C6C000B409A420BD0A36A23F0120343F01003FB
:100C7C00A362E36A43F00103E36201200DE0002369
:100C8C00E362A36A23F0030343F00103A36204E0CD
:100C9C00A36A43F01003A362012038BD0120704702
:100CAC00FDF7E1FFFE0E1FFF70B582B0002301932C
:100CBC0090F82430012B68D00446012380F82430AE
:100CCC00FFF744FF054628B1002384F8243028465A
:100CDC0002B070BDA36A23F4885323F0020343F0DF
:100CEC000203A3622A4B1E68022001F077FCB6FBBC
:100CFC00F0F04000019002E0019B013B0193019B4D
:100D0C00002BF9D12046FFF7E1FE2268936843F0EF
:100D1C0008039360FFF738FE064623689A6812F0C2
:100D2C00080F0FD0FFF730FE801B0A28F5D9A36AF5
:100D3C0023F0120343F01003A362002384F8243041
:100D4C000125C4E79A6842F004029A60FFF71CFE82
:100D5C00064623689B6813F0040F0FD0FFF714FEB0
:100D6C00801B0A28F5D9A36A23F0120343F0100361
:100D7C00A362002384F824300125A8E7A36A23F09A
:100D8C00030343F00103A3629EE702259FE700BF24
:100D9C0030040020074AD36823F4E0631B041B0CC7
:100DAC00000200F4E060184340F0BF6040F40030F3
:100DBC00D060704700ED00E030B4174BDB68C3F334
:100DCC000223C3F10704042C28BF04241D1D062D87
:100DDC0018D9033B4FF0FF3505FA04F421EA04015E
:100DEC00994005FA03F322EA0303194300280BDBAD
:100DFC000901C9B200F1604000F5614080F80013B0
:100E0C0030BC70470023E5E700F00F000901C9B2C0
:100E1C00024B1954F4E700BF00ED00E014ED00E0C4
:100E2C000138B0F1807F0AD2064B5860064AF02197
:100E3C0082F823100020986007221A607047012066
:100E4C00704700BF10E000E000ED00E0F0B482B0AD
:100E5C0000263246A2E0002D5AD0012D00D1CE68DA
:100E6C00FF2B69D88446FF2B69D89500DCF800402D
:100E7C000F27AF4024EA070406FA05F52C43CCF8FB
:100E8C0000404C6814F0805F00F087805F4CA569CF
:100E9C0045F00105A561A46904F001040194019CCD
:100EAC009508AF1C5A4C54F8274002F00307BF00BA
:100EBC004FF00F0C0CFA07FC24EA0C0C554CA0421A
:100ECC0043D004F58064A04200F0818004F5806476
:100EDC00A0427ED004F58064A04234D0042435E0D6
:100EEC004D4FBD4214D00BD94C4FBD4210D007F51D
:100EFC008037BD420CD0A7F58017BD42B0D107E0BA
:100F0C00A7F58017BD4203D007F58037BD42A7D1A6
:100F1C008D687DB1012D08D044610826A0E7CE680C
:100F2C0008369DE7CE680C369AE70461082697E7E9
:100F3C00002695E7042693E700F1040C93E7A2F151
:100F4C000805AD0092E7032400E00024BC4044EA0D
:100F5C000C0402352E4F47F825404C6814F4803FA2
:100F6C0039D02F4D2C681C432C604C6814F4003F76
:100F7C0037D02B4D6C681C436C604C6814F4801F8C
:100F8C0035D0274DAC681C43AC604C6814F4001F82
:100F9C0033D0234DEC682343EB6001320B6833FAFA
:100FAC0002F430D00124944023409C42F5D14D688A
:100FBC00122DB7D094D8022DB1D07FF64CAF032DA3
:100FCC00B6D0112D7FF44CAFCE68043648E701241F
:100FDC00BCE70224BAE7124D2C6824EA03042C6007
:100FEC00C3E70F4D6C6824EA03046C60C5E70C4D35
:100FFC00AC6824EA0304AC60C7E7094DEC6824EA4A
:10100C000303EB60C9E702B0F0BC7047001002406C
:10101C0000000140000801400000211000003110C8
:10102C00000401408368194201D10020704701205F
:10103C00704712B909040161704701617047036878
:10104C005A6912F4806F11D06FF480625A610023D8
:10105C000363202280F83D2080F83E30026C42F081
:10106C000402026480F83C30012070470020704775
:10107C00F8B506460C4617461D4622E0FFF784FCE1
:10108C00069BC01AA84200D8DDB900233363202286
:10109C0086F83D2086F83E30326C42F020023264F5
:1010AC0086F83C3001201AE033685B6924EA0303BC
:1010BC009BB2B3FA83F35B099F420FD1B5F1FF3FAB
:1010CC00DCD1C4F30743012BEED033689B6924EACF
:1010DC0003039BB2B3FA83F35B09EDE70020F8BD81
:1010EC00F8B504460D4616461F463CE01A6842F415
:1010FC0000721A6023686FF480625A6100232363C4
:10110C00202284F83D2084F83E30226C42F0040208
:10111C00226484F83C30012033E0FFF735FCC01B1F
:10112C00B04200D8FEB900232363202284F83D206E
:10113C0084F83E30226C42F02002226484F83C3069
:10114C0001201EE023685B6925EA03039BB2003390
:10115C0018BF0123A3B123685A6912F4806FC5D15B
:10116C00B6F1FF3FD9D1C5F30743012BEAD0236871
:10117C009B6925EA03039BB2003318BF0123E9E7FF
:10118C000020F8BDF0B583B004460F4615461E4648
:10119C00C36A082B0DD0012B0BD013F5803F08D060
:1011AC00036B122B0AD10268136843F4807313602B
:1011BC0004E02268136843F48073136000962B4696
:1011CC0000224FF001112046FFF752FF58B123685F
:1011DC001B6813F4807F2BD04FF40073236403231C
:1011EC00184603B0F0BD2369B3F5804F0ED12368C8
:1011FC0007F0FE071F6133462A460F492046FFF7CA
:10120C006FFF03460028EBD00123E9E7FB112268AE
:10121C0003F0060343F0F003136133462A460749F3
:10122C002046FFF75DFF28B92368FFB21F61E2E794
:10123C000323D5E70123D3E70200010008000100D6
:10124C0070B504460D46164623685B6913F0800F93
:10125C001CD12046FFF7F3FED0B9B5F1FF3FF3D018
:10126C00FFF792FB801BA84201D8002DECD1002384
:10127C002363202284F83D2084F83E30226C42F017
:10128C002002226484F83C30012000E0002070BD74
:10129C000120FCE72DE9F04184B004460E461746C8
:1012AC0098460B9D0268136843F4806313600268D0
:1012BC00136843F48073136000950A9B00224FF06F
:1012CC000111FFF7D5FE68B123681B6813F4807F0A
:1012DC0000F089804FF4007323640323184604B094
:1012EC00BDE8F081F6B2236806F0FE021A612B46C7
:1012FC000A9A3F492046FFF7F3FE08B10123EDE7B8
:10130C000023039323685A6903929B690393039BFD
:10131C002A460A992046FFF793FF58B1236C042BF9
:10132C0001D00123DAE72268136843F400731360D9
:10133C000123D3E7B8F1010F0DD12368FFB21F6170
:10134C002A460A992046FFF77BFF20B3236C042B17
:10135C001AD00123C2E723683A0A1A612A460A996D
:10136C002046FFF76DFF58B1236C042B01D00123ED
:10137C00B4E72268136843F4007313600123ADE7EC
:10138C002368FFB21F61DBE72268136843F4007324
:10139C0013600123A2E72268136843F4807313607F
:1013AC0000950A9B00224FF001112046FFF760FECA
:1013BC0048B123681B6813F4807F16D04FF4007378
:1013CC00236403238AE7236846F001061E612B463B
:1013DC000A9A07492046FFF783FE034600283FF48C
:1013EC007DAF01237AE7032378E7032376E700BF79
:1013FC000200010070B504460D46164623685B6971
:10140C0013F0040F1CD12046FFF719FED0B9B5F12B
:10141C00FF3FF3D0FFF7B8FA801BA84201D8002D8C
:10142C00ECD100232363202284F83D2084F83E3045
:10143C00226C42F02002226484F83C30012000E04F
:10144C00002070BD0120FCE770B505460C46164621
:10145C002B685A6912F0400F29D15A6912F0100FFB
:10146C0015D1FFF791FA801BA04201D8002CEFD1C7
:10147C0000232B63202285F83D2085F83E302A6C12
:10148C0042F020022A6485F83C30012070BD6FF0D8
:10149C0010025A6100232B63202285F83D2085F829
:1014AC003E302A6C2A6485F83C300120EEE700209F
:1014BC00ECE770B504460D46164623685B6913F0DD
:1014CC00100F19D12046FFF7BAFDB8B9FFF75CFA37
:1014DC00801BA84201D8002DEFD1002323632022CA
:1014EC0084F83D2084F83E30226C42F020022264C5
:1014FC0084F83C30012070BD0020FCE70120FAE7A5
:10150C00002800F0C880F8B5044690F83D30002B58
:10151C0075D0242384F83D302268136823F001032E
:10152C0013602268136843F4004313602268136845
:10153C0023F40043136000F0A7FF6268584B9A42F3
:10154C0062D8584B98428CBF00230123002B40F0EB
:10155C00A480554BA3FB00239B0C21684A6822F006
:10156C003F021A434A6025682A6A22F03F026668E5
:10157C004B498E424ED8013313432B622568E969DF
:10158C0021F44F4121F0FF016368454A93424BD847
:10159C0001385B00B0FBF3F30133C3F30B03042BF3
:1015AC0038BF04230B43EB6121680B6823F0C003A5
:1015BC00E269206A024313430B6021688B6823F4B1
:1015CC00034323F0FF032269E068024313438B605B
:1015DC002168CB6823F0FF036269A06902431343BF
:1015EC00CB602268136843F0010313600020206471
:1015FC00202384F83D30206384F83E00F8BD80F849
:10160C003C30FFF719F984E7284B98428CBF002334
:10161C0001239BE74FF4967101FB03F32449A1FBD3
:10162C0003139B090133A7E7A268BAB9461E03EB63
:10163C004307B6FBF7F60136C6F30B06B6FA86F689
:10164C00760936BBC2B9013803EB4303B0FBF3F3A5
:10165C000133C3F30B0242F40043A3E7461E03EB32
:10166C00830707EB8707B6FBF7F60136C6F30B06C5
:10167C00B6FA86F67609E4E7013803EB830303EB4D
:10168C008303B0FBF3F20132C2F30B0242F440438A
:10169C0088E7012386E7012070470120AEE700BFF1
:1016AC00A08601007F841E0083DE1B43FF083D00E3
:1016BC00D34D62102DE9F04184B004460E4690469D
:1016CC001F46FFF761F994F83D30DBB2202B04D0B4
:1016DC000226304604B0BDE8F0810546009019237F
:1016EC0001224F492046FFF7C3FC002840F09180AF
:1016FC0094F83C30012B00F08E80012384F83C30B0
:10170C0023681A6812F0010F03D11A6842F0010223
:10171C001A602268136823F400631360212384F891
:10172C003D30102384F83E3000232364C4F8248019
:10173C006785638D23853B4BE3622B460A9A3146C2
:10174C002046FFF71FFD0646002866D100230393B1
:10175C0023685A6903929B690393039B12E0236CE1
:10176C00042B01D00126B4E72268136843F40073FC
:10177C0013600126ADE72A460A992046FFF73AFE88
:10178C0000282CD1238D002B35D02A460A992046CF
:10179C00FFF756FD0028E2D1626A236812781A61BD
:1017AC00616A4B1C6362638D013B9BB26385238D25
:1017BC00013B9BB223852268506910F0040FDAD0EC
:1017CC00002BD8D04B781361636A01336362638D4D
:1017DC00013B9BB26385238D013B2385CBE7236CB7
:1017EC00042B01D0012674E72268136843F40073BC
:1017FC00136001266DE72268136843F400731360CD
:10180C00202384F83D30002384F83E3084F83C30AB
:10181C005FE702265DE702265BE7012659E700BF7A
:10182C00020010000000FFFF2DE9F04184B00446D7
:10183C000F4690461D46FFF7A7F894F83D30DBB2F3
:10184C00202B40F0A8800646002F00F0A980B8F1AC
:10185C00000F00F0A78094F83C30012B00F0A4801E
:10186C00012384F83C3023681A6812F0010F03D16D
:10187C001A6842F001021A602268136823F40063AC
:10188C001360212384F83D30202384F83E3000225D
:10189C0022646762A4F82A80638D2385464BE36239
:1018AC0021680B6843F480630B6000962B46434918
:1018BC002046FFF7DDFB002878D100230293236834
:1018CC005A6902929B690293029B2369B3F5404FBC
:1018DC002CD0238D002B42D0324629462046FFF7D0
:1018EC00AFFC002834D1626A236812781A61616AED
:1018FC004B1C6362638D013B9BB26385238D013B63
:10190C009BB223852268506910F0040FE1D0002BA4
:10191C00DFD04B781361636A01336362638D013BE3
:10192C009BB26385238D013B2385D2E700962B4622
:10193C00002222492046FFF79BFB002838D10023C8
:10194C00039323685A6903929B690393039BC0E733
:10195C002268136823F48063136001231CE0009653
:10196C002B4600224FF482312046FFF781FB0346C1
:10197C0000BB22686FF48061516121680A6822F40F
:10198C0080620A60202284F83D20002284F83E20E8
:10199C0084F83C2000E00223184604B0BDE8F08136
:1019AC000123F9E70123F7E70223F5E70123F3E726
:1019BC000123F1E70123EFE70000FFFF0200010024
:1019CC002DE9F04184B004460F4690461D46FEF7C3
:1019DC00DBFF94F83D30DBB2202B40F09A800646BA
:1019EC00002F00F09B80B8F1000F00F0998094F864
:1019FC003C30012B00F09680012384F83C302368A6
:101A0C001A6812F0010F03D11A6842F001021A6031
:101A1C002268136823F400631360222384F83D309A
:101A2C00202384F83E30002222646762A4F82A80C6
:101A3C00638D23853D4BE36221680B6843F480631F
:101A4C000B6000962B463A492046FFF711FB002805
:101A5C006AD10023029323685A6902929B6902930C
:101A6C00029B238D002B2FD0324629462046FFF7B0
:101A7C00EBFC10BB23681A69636A1A70616A4B1C11
:101A8C006362238D013B9BB22385628D013A92B236
:101A9C0062852268506910F0040FE2D0002BE0D070
:101AAC0013694B70636A01336362238D013B238599
:101ABC00638D013B9BB26385D3E72268136823F4E3
:101ACC0080631360012325E0324629462046FFF748
:101ADC00F0FC0346B0B900220392216848690390D8
:101AEC00086840F00100086003992068016821F43F
:101AFC0080610160202184F83D1084F83E2084F838
:101B0C003C2007E02268136823F4806313600123F0
:101B1C0000E00223184604B0BDE8F0810123F9E788
:101B2C000123F7E70223F5E70123F3E70000FFFFAA
:101B3C00020001002DE9F04188B004460D4617461D
:101B4C00984600230793FEF71FFF94F83D30DBB255
:101B5C00202B04D00225284608B0BDE8F0810646AB
:101B6C000090192301227F492046FFF781FA0028B3
:101B7C0040F0698194F83C30012B00F06681012320
:101B8C0084F83C3023681A6812F0010F03D11A68EC
:101B9C0042F001021A602268136823F40063136098
:101BAC00222384F83D30402384F83E300023236404
:101BBC000E9B6362BDF83C306385638D23856A4B55
:101BCC00E3620196109B009343463A462946204611
:101BDC00FFF760FB0546002840F03981238D5BB987
:101BEC00039323685A6903929A690392039A1A68B9
:101BFC0042F400721A60E5E0012B0FD0022B21D0C9
:101C0C002268136843F480631360002306932368EF
:101C1C005A6906929B690693069BD3E02268136867
:101C2C0023F48063136072B60023049323685A690B
:101C3C0004929A690492049A1A6842F400721A6027
:101C4C0062B6BFE02268136843F40063136072B697
:101C5C000023059323685A6905929A690592059A9F
:101C6C001A6822F480621A6062B6ABE032461099B0
:101C7C002046FFF7E9FB002840F0EB8023681A6947
:101C8C00636A1A70636A01336362238D013B238597
:101C9C00638D013B9BB2638594E00096109B002200
:101CAC0032492046FFF7E4F9002840F0D68022683C
:101CBC00136823F48063136072B623681A69636A2D
:101CCC001A70636A01336362238D013B2385638D34
:101CDC00013B9BB26385264B1B68DB08254AA2FBA4
:101CEC0003231B0A03EB8303C3EBC3030793079B79
:101CFC00013B0793079B33B323685A6912F0040F17
:101D0C00F5D01A6842F400721A6023681A69636A83
:101D1C001A70636A01336362238D013B2385638DE3
:101D2C00013B9BB2638562B623681A69636A1A70B9
:101D3C00636A01336362238D013B2385638D013B11
:101D4C009BB263853EE02363202284F83D2084F817
:101D5C003E30226C42F02002226462B684F83C30A1
:101D6C000125F8E6020010000000FFFF040001004E
:101D7C003004002089B5F814324610992046FFF73C
:101D8C0063FB00286BD123681A69636A1A70626A54
:101D9C00531C6362238D013B2385638D013B9BB2F6
:101DAC0063852368596911F0040F0BD01B695370BC
:101DBC00636A01336362238D013B2385638D013B91
:101DCC009BB26385238D002B34D0032BD4D8012BED
:101DDC003FF44CAF022B7FF460AF0096109B0022B7
:101DEC0020492046FFF744F9002834D172B6226806
:101DFC00136843F40073136023681A69636A1A70DA
:101E0C00636A01336362238D013B2385638D013B40
:101E1C009BB2638562B623681A69636A1A70636A37
:101E2C0001336362238D013B2385638D013B9BB2A0
:101E3C006385C7E7202384F83D30002384F83E30C7
:101E4C0084F83C3087E6022585E6022583E60125E9
:101E5C0081E601257FE601257DE601257BE601254E
:101E6C0079E600BF0400010082B0084B1B68084AE9
:101E7C00A2FB03235B0A00FB03F0019000BF019B54
:101E8C005A1E0192002BF9D102B070473004002089
:101E9C00D34D6210002800F0F58170B582B0044675
:101EAC00036813F0010F2CD0AB4B5B6803F00C03F1
:101EBC00042B1DD0A84B5B6803F00C03082B12D02D
:101ECC006368B3F5803F41D0002B55D103F18043BB
:101EDC0003F504331A6822F480321A601A6822F46B
:101EEC0080221A6037E09C4B5B6813F4803FE7D08C
:101EFC00994B1B6813F4003F03D06368002B00F070
:101F0C00C381236813F0020F76D0934B5B6813F0F8
:101F1C000C0F5FD0904B5B6803F00C03082B54D074
:101F2C002369002B00F08A808C4B01221A60FEF78B
:101F3C002BFD0546884B1B6813F0020F75D1FEF77D
:101F4C0023FD401B0228F5D90320A0E1824A136827
:101F5C0043F480331360636843B3FEF715FD054605
:101F6C007D4B1B6813F4003FCBD1FEF70DFD401BDE
:101F7C006428F5D903208AE1B3F5A02F09D0764B5C
:101F8C001A6822F480321A601A6822F480221A60CD
:101F9C00E1E703F18043A3F53C331A6842F4802255
:101FAC001A601A6842F480321A60D4E7FEF7ECFC2F
:101FBC000546694B1B6813F4003FA2D0FEF7E4FC06
:101FCC00401B6428F5D9032061E1634B5B6813F473
:101FDC00803FA5D1604B1B6813F0020F04D023691E
:101FEC00012B01D0012052E15B4A136823F0F80366
:101FFC00616943EAC1031360236813F0080F32D000
:10200C00A369002B5BD0564B01221A60FEF7BCFC77
:10201C000546514B5B6A13F0020F21D1FEF7B4FC5D
:10202C00401B0228F5D9032031E14B4A136823F0F9
:10203C00F803616943EAC1031360DDE7474B0022F3
:10204C001A60FEF7A1FC0546434B1B6813F0020F08
:10205C00D2D0FEF799FC401B0228F5D9032016E1DB
:10206C000120FFF701FF236813F0040F00F09880A4
:10207C00394BDB6913F0805F33D1374BDA6942F0AF
:10208C008052DA61DB6903F080530193019B0125D7
:10209C00344B1B6813F4807F25D0E368012B36D0BA
:1020AC00002B4CD103F1804303F504331A6A22F060
:1020BC0001021A621A6A22F004021A622CE0284BFE
:1020CC0000221A60FEF760FC0546234B5B6A13F096
:1020DC00020FC8D0FEF758FC401B0228F5D903208C
:1020EC00D5E00025D4E71F4A136843F480731360CE
:1020FC00FEF74AFC06461B4B1B6813F4807FCCD1C1
:10210C00FEF742FC801B6428F5D90320BFE0124A7D
:10211C00136A43F001031362E3687BB3FEF734FCEC
:10212C0006460D4B1B6A13F0020F38D1FEF72CFC40
:10213C00801B41F288339842F3D90320A7E0052B8A
:10214C0012D0054B1A6A22F001021A621A6A22F0A6
:10215C0004021A62E0E700BF001002400000424295
:10216C0080044242007000404C4B1A6A42F0040258
:10217C001A621A6A42F001021A62CDE7FEF704FCF9
:10218C000646464B1B6A13F0020F08D0FEF7FCFB09
:10219C00801B41F288339842F3D9032077E0E5B9EC
:1021AC00E369002B72D03D4A526802F00C02082AF7
:1021BC0056D0022B17D03A4B00221A60FEF7E4FBE4
:1021CC000446364B1B6813F0007F47D0FEF7DCFB50
:1021DC00001B0228F5D9032059E0304AD36923F0BB
:1021EC008053D361DCE72E4B00221A60FEF7CCFB48
:1021FC0005462A4B1B6813F0007F06D0FEF7C4FB84
:10220C00401B0228F5D9032041E0236AB3F5803F37
:10221C001AD022494B6823F47413226A606A024371
:10222C0013434B601E4B01221A60FEF7ADFB0446B4
:10223C001A4B1B6813F0007F0ED1FEF7A5FB001B99
:10224C000228F5D9032022E0144A536823F4003302
:10225C00A1680B435360DCE7002018E0002016E077
:10226C00012B16D00D4B5B6803F48031226A91422E
:10227C0001D001200BE003F47013626A93420AD080
:10228C00012004E001207047012000E0002002B092
:10229C0070BD0120FBE70020F9E700BF00100240F1
:1022AC006000424210B487B0164C94E80F000DF158
:1022BC00180C0CE90F00238AADF80430124B5B6844
:1022CC0003F00C02082A1AD1C3F38342624412F8B9
:1022DC00102C13F4803F05D10C4800FB02F007B022
:1022EC0010BC7047084B5B68C3F34043634413F85E
:1022FC00143C074800FB02F0B0FBF3F0EFE7044896
:10230C00EDE700BF5C2700080010024000093D000B
:10231C0000127A00002800F0A38070B50446524BDE
:10232C001B6803F007038B420CD24F4A136823F04F
:10233C0007030B431360136803F007038B4201D0B0
:10234C00012070BD236813F0020F17D013F0040F97
:10235C0004D0464A536843F4E0635360236813F097
:10236C00080F04D0414A536843F4605353603F4A0A
:10237C00536823F0F003A068034353600D462368B1
:10238C0013F0010F31D06368012B20D0022B25D024
:10239C00364A126812F0020F64D034494A6822F0AF
:1023AC00030213434B60FEF7EFFA06462F4B5B68B4
:1023BC0003F00C036268B3EB820F16D0FEF7E4FA5D
:1023CC00801B41F288339842F0D90320B9E7274AA1
:1023DC00126812F4003FE0D10120B2E7234A1268E0
:1023EC0012F0007FD9D10120ABE71F4B1B6803F023
:1023FC000703AB420CD91C4A136823F007032B4389
:10240C001360136803F00703AB4201D0012098E777
:10241C00236813F0040F06D0144A536823F4E063C6
:10242C00E1680B435360236813F0080F07D00F4A81
:10243C00536823F46053216943EAC1035360FFF7E7
:10244C0031FF0A4B5B68C3F30313094AD35CD840D2
:10245C00084B1860084B1868FEF752FA002070E71A
:10246C000120704701206CE7002002400010024060
:10247C00882700083004002038040020014B18681D
:10248C00704700BF3004002008B5FFF7F7FF044B7E
:10249C005B68C3F30223034AD35CD84008BD00BF7A
:1024AC00001002409827000808B5FFF7E7FF044B1F
:1024BC005B68C3F3C223034AD35CD84008BD00BF9A
:1024CC00001002409827000870B582B004460368DB
:1024DC0013F0010F34D03E4BDB6913F0805F48D111
:1024EC003B4BDA6942F08052DA61DB6903F08053CE
:1024FC000193019B0125374B1B6813F4807F3AD065
:10250C00334B1B6A13F4407311D0626802F44072AF
:10251C009A420CD02E4A136A23F440702E4901269D
:10252C000E6000260E60106213F0010F37D1284A9E
:10253C00136A23F4407361680B431362002D3FD17F
:10254C00236813F0020F06D0214A536823F440434A
:10255C00A1680B435360236813F0100F35D01C4A4D
:10256C00536823F48003E1680B435360002002B0EE
:10257C0070BD0025BFE7174A136843F480731360DE
:10258C00FEF702FA0646134B1B6813F4807FB7D193
:10259C00FEF7FAF9801B6428F5D90320E7E7FEF76C
:1025AC00F3F906460A4B1B6A13F0020FBFD1FEF774
:1025BC00EBF9801B41F288339842F3D90320D6E71C
:1025CC00D36923F08053D361BAE70020CFE700BF73
:1025DC0000100240007000404004424230B587B009
:1025EC000546384C94E80F000DF1180C0CE90F005F
:1025FC00238AADF80430022D50D0102D03D0012DBC
:10260C002BD0002054E0304B5A681B6813F0807FAD
:10261C0050D0C2F3834306A90B4413F8100C12F4E8
:10262C00803F16D0284B5B68C3F340430B4413F830
:10263C00142C264BB3FBF2F300FB03F0224B5B682C
:10264C0013F4800F34D14000214BA3FB0030400821
:10265C002EE0204B03FB00F0F0E71B4B1B6A40F213
:10266C0002321A40B2F5817F26D003F44073B3F5E1
:10267C00007F04D0B3F5407F09D0002018E0124A47
:10268C00526A12F0020FF5D049F6404010E00E4BA2
:10269C001B6813F4003F12D1002009E0FFF704FF80
:1026AC00094B5B68C3F3813301335B00B0FBF3F080
:1026BC0007B030BD0020FBE74FF40040F8E74FF2C5
:1026CC002440F5E7702700080010024000127A0041
:1026DC00ABAAAAAA00093D00002103E00B4B5B58F2
:1026EC00435004310A480B4B42189A42F6D30A4A1B
:1026FC0002E0002342F8043B084B9A42F9D3FEF760
:10270C00FDF8FDF761FDFDF71FFF7047AC270008D2
:10271C00000000203C04002040040020780500202C
:10272C00FEE70000024B13B10248FDF72DBD7047C8
:10273C0000000000A1010008F8B500BFF8BC08BCFF
:10274C009E467047F8B500BFF8BC08BC9E46704763
:10275C0002030405060708090A0B0C0D0E0F1010D6
:10276C000102000002030405060708090A0B0C0D00
:10277C000E0F1010010200000800002000000000E5
:10278C000000000001020304060708090000000015
:04279C00010203042F
:0827A000312700087501000853
:0427A8004D010008D7
:1027AC00080000200000000000000000F4020020DF
:1027BC005C030020C40300200000000000000000A7
:1027CC0000000000000000000000000000000000FD
:1027DC0000000000000000000000000000000000ED
:1027EC0000000000000000000000000000000000DD
:1027FC0000000000000000000000000000000000CD
:10280C0000000000000000000000000000000000BC
:10281C0000000000000000000000000000000000AC
:10282C00000000000000000000000000000000009C
:10283C00000000000000000000000000000000008C
:10284C00000000000000000000000000000000007C
:10285C0001000000000000000E33CDAB34126DE619
:10286C00ECDE05000B000000000000000000000082
:10287C00000000000000000000000000000000004C
:10288C00000000000000000000000000000000003C
:10289C00000000000000000000000000000000002C
:1028AC00000000000000000000000000000000001C
:0C2BDC000024F4000100000010000000C4
:04000005080026E5E4
:00000001FF
