:020000040800F2
:100000000050002001130008F9050008FB05000856
:10001000FD050008FF0500080106000800000000BB
:1000200000000000000000000000000003060008BF
:100030000506000800000000070600080906000881
:100040004913000849130008491300084913000820
:100050004913000849130008491300084913000810
:100060004913000849130008491300084913000800
:1000700049130008491300084913000849130008F0
:1000800049130008491300084913000849130008E0
:1000900049130008491300084913000849130008D0
:1000A00049130008491300084913000849130008C0
:1000B00049130008491300084913000849130008B0
:1000C00049130008491300084913000849130008A0
:1000D0004913000849130008491300084913000890
:1000E00049130008491300084913000800000000E4
:1000F0000000000000000000000000000000000000
:0C01000000000000000000005FF808F1A3
:10010C000348044B834202D0034B03B1184770479A
:10011C003C0400203C040020000000000548064977
:10012C00091A891001EBD171491002D0034B03B1AC
:10013C00184770473C0400203C04002000000000DD
:10014C0010B5064C237843B9FFF7DAFF044B13B113
:10015C000448AFF300800123237010BD3C04002041
:10016C00000000006013000808B5044B1BB10449E3
:10017C000448AFF30080BDE80840CFE70000000062
:10018C004004002060130008002301461A4618465C
:10019C0000F088B838B50A4C0A4D641BA4100AD07C
:1001AC0004F18043013B05EB8305013C55F8043910
:1001BC009847002CF9D1BDE8384001F0D1B800BF08
:1001CC00AC130008A813000870B50D4E0D4D761B2E
:1001DC00B61006D00024013455F8043B9847A642CB
:1001EC00F9D1094E094D01F0B5F8761BB61006D0C1
:1001FC000024013455F8043B9847A642F9D170BD50
:10020C00A0130008A0130008A8130008A0130008EE
:10021C00F0B4860743D0541E002A3ED0CAB203461F
:10022C0002E014F1FF3438D303F8012B9D07F8D109
:10023C00032C2BD9CDB245EA05250F2C45EA0545F3
:10024C0016D9A4F110073F0903F1200606EB071697
:10025C0003F1100242E9045542E902551032B24250
:10026C00F8D104F00F040137032C03EB07130DD95D
:10027C001E462246043A032A46F8045BFAD8221F8B
:10028C0022F003020432134404F003042CB1C9B26B
:10029C001C4403F8011B9C42FBD1F0BC7047144674
:1002AC000346C5E7F0B4174C2568D5F848410CB3A4
:1002BC0065681F2D23DC38B900206B1C0235636088
:1002CC0044F82510F0BC7047012604EB850CCCF8E3
:1002DC008820D4F8887106FA05F217430228C4F86E
:1002EC008871CCF80831E7D1D4F88C311A43C4F8B2
:1002FC008C21E1E705F5A674C5F84841D8E74FF025
:10030C00FF30DFE78C13000830B589B0002404946B
:10031C000594069407942A4B9A6942F010029A614C
:10032C009A6902F010020092009A9A6942F0200237
:10033C009A619A6902F020020192019A9A6942F03C
:10034C0004029A619A6902F004020292029A9A6972
:10035C0042F008029A619B6903F008030393039B24
:10036C00184D22464FF20301284600F029FC2023A9
:10037C0004930594069404A9134800F035FB4FF23E
:10038C00030304930123059306940223079304A902
:10039C00284600F029FB042304930594069404A931
:1003AC00284600F021FB4FF44C6304931223059371
:1003BC000323079304A9284600F016FB09B030BDAF
:1003CC0000100240000C01400008014072B6FEE72C
:1003DC0000B585B000230193029303930F48104A94
:1003EC0002608360037303754FF46022C261436043
:1003FC000123036100F014FA60B901230193029305
:10040C000023039301A9054800F048F920B905B071
:10041C005DF804FBFFF7DAFFFFF7D8FF8804002034
:10042C000024014000B585B000230193029303938F
:10043C001048114A02608360037303754FF4602205
:10044C00C26143600123036100F0EAF968B9032338
:10045C000193012302930023039301A9054800F0A3
:10046C001DF920B905B05DF804FBFFF7AFFFFFF7EE
:10047C00ADFF00BF580400200028014000B595B026
:10048C00242200210BA8FFF7C3FE0023059306933B
:10049C000793089309930193029303930493022304
:1004AC000A9301230E9310230F930AA800F0A4FBC8
:1004BC00A8B90F2305930021069107910891099182
:1004CC0005A800F0D9FD60B9022301930023039322
:1004DC0001A800F085FE30B915B05DF804FBFFF7FC
:1004EC0075FFFFF773FFFFF771FF08B500F0B2F867
:1004FC00FFF7C4FFFFF708FFFFF76AFFFFF792FF54
:10050C00FEE7000082B00E4B9A6942F001029A613C
:10051C009A6902F001020092009ADA6942F0805264
:10052C00DA61DB6903F080530193019B054A536840
:10053C0023F0E06343F08063536002B0704700BF68
:10054C00001002400000014000B589B00023049364
:10055C000593069307930368204A934205D0204ADB
:10056C0093421ED009B05DF804FB1E4B9A6942F40D
:10057C0000729A619A6902F400720092009A9A6968
:10058C0042F004029A619B6903F004030193019BFE
:10059C00122304930323059304A9134800F024FAAF
:1005AC00E0E7104B9A6942F480629A619A6902F40E
:1005BC0080620292029A9A6942F004029A619B69E3
:1005CC0003F004030393039B0C230493032305936D
:1005DC0004A9054800F008FAC4E700BF0024014054
:1005EC00002801400010024000080140FEE7FEE731
:1005FC00FEE7FEE7FEE770477047704708B500F06E
:10060C003BF808BD7047000010B504460E4B187837
:10061C004FF47A73B3FBF0F30C4A1068B0FBF3F0B1
:10062C0000F0CCF968B90F2C01D901200AE00022A6
:10063C0021464FF0FF3000F08DF9054B1C60002077
:10064C0000E0012010BD00BF340400203004002065
:10065C003804002008B5074A136843F010031360F0
:10066C00032000F065F90020FFF7CEFFFFF74AFFEB
:10067C00002008BD00200240034A1168034B1B7880
:10068C000B441360704700BFB804002034040020F2
:10069C00014B1868704700BFB804002030B482B01A
:1006AC000023019390F82430012B00F08B8002463C
:1006BC00012380F824304B68062B29D80568686B19
:1006CC0003EB8303053B1F249C4020EA04000C68C9
:1006DC0004FA03F303436B630B68092B38D91568D1
:1006EC00E86803EB43031E3B07249C4020EA04000C
:1006FC008C6804FA03F30343EB600B68103B012B8B
:10070C0034D90020002382F8243002B030BC70476A
:10071C000C2B0ED80568286B03EB8303233B1F249B
:10072C009C4020EA04000C6804FA03F303432B6397
:10073C00D2E70568E86A03EB8303413B1F249C4026
:10074C0020EA04000C6804FA03F30343EB62C3E7EA
:10075C001568286903EB430307249C4020EA040036
:10076C008C6804FA03F303432B61C6E7136816483D
:10077C00834205D0936A43F0200393620120C1E7C2
:10078C00986810F4000F1BD1986840F40000986032
:10079C000B68102B01D00020B4E70C4B1B680C49E4
:1007AC00A1FB03139B0C03EB83035900019102E0A3
:1007BC00019B013B0193019B002BF9D10020A1E788
:1007CC0000209FE70220A0E7002401403004002015
:1007DC0083DE1B4338B503689A6812F0010F01D110
:1007EC00002038BD04469A6822F001029A60FFF797
:1007FC004FFF054623689B6813F0010F0ED0FFF7DF
:10080C0047FF401B0228F5D9A36A43F01003A362EB
:10081C00E36A43F00103E3620120E2E70020E0E732
:10082C0000287FD038B50446836A002B33D020468D
:10083C00FFF7D0FFA36A13F010036DD100286BD122
:10084C00A26A22F4885222F0020242F00202A26250
:10085C006268E1690A43257B42EA4502A168B1F569
:10086C00807F21D001291CD0217D01291FD0256832
:10087C00696821F469410B436B6021688D682A4BD0
:10088C002B4013438B60A368B3F5807F20D0012BE2
:10089C001ED000211FE0C36280F82430FFF754FE05
:1008AC00C5E74FF48073DFE74FF48073DCE735B9AD
:1008BC00A169013943EA413343F40063D7E7A16AE4
:1008CC0041F02001A162E16A41F00101E162CEE751
:1008DC002369013B19052568EB6A23F470030B436C
:1008EC00EB6223689968114B0B409A420BD0A36AB8
:1008FC0023F0120343F01003A362E36A43F00103F5
:10090C00E36201200DE00023E362A36A23F00303FA
:10091C0043F00103A36204E0A36A43F01003A36253
:10092C00012038BD01207047FDF7E1FFFE0E1FFFCF
:10093C00074AD36823F4E0631B041B0C000200F489
:10094C00E060184340F0BF6040F40030D060704766
:10095C0000ED00E030B4174BDB68C3F30223C3F1A6
:10096C000704042C28BF04241D1D062D18D9033B95
:10097C004FF0FF3505FA04F421EA0401994005FA19
:10098C0003F322EA0303194300280BDB0901C9B264
:10099C0000F1604000F5614080F8001330BC7047F6
:1009AC000023E5E700F00F000901C9B2024B19540E
:1009BC00F4E700BF00ED00E014ED00E00138B0F109
:1009CC00807F0AD2064B5860064AF02182F8231029
:1009DC000020986007221A6070470120704700BF02
:1009EC0010E000E000ED00E0F0B482B000263246EA
:1009FC00A2E0002D5AD0012D00D1CE68FF2B69D872
:100A0C008446FF2B69D89500DCF800400F27AF40D7
:100A1C0024EA070406FA05F52C43CCF800404C6890
:100A2C0014F0805F00F087805F4CA56945F00105EC
:100A3C00A561A46904F001040194019C9508AF1C04
:100A4C005A4C54F8274002F00307BF004FF00F0C2C
:100A5C000CFA07FC24EA0C0C554CA04243D004F5CC
:100A6C008064A04200F0818004F58064A0427ED0B6
:100A7C0004F58064A04234D0042435E04D4FBD42CF
:100A8C0014D00BD94C4FBD4210D007F58037BD4266
:100A9C000CD0A7F58017BD42B0D107E0A7F58017A1
:100AAC00BD4203D007F58037BD42A7D18D687DB11B
:100ABC00012D08D044610826A0E7CE6808369DE7D2
:100ACC00CE680C369AE70461082697E7002695E76E
:100ADC00042693E700F1040C93E7A2F10805AD009E
:100AEC0092E7032400E00024BC4044EA0C040235E5
:100AFC002E4F47F825404C6814F4803F39D02F4DC9
:100B0C002C681C432C604C6814F4003F37D02B4DE0
:100B1C006C681C436C604C6814F4801F35D0274DF6
:100B2C00AC681C43AC604C6814F4001F33D0234DEC
:100B3C00EC682343EB6001320B6833FA02F430D0DB
:100B4C000124944023409C42F5D14D68122DB7D01E
:100B5C0094D8022DB1D07FF64CAF032DB6D0112D09
:100B6C007FF44CAFCE68043648E70124BCE702247E
:100B7C00BAE7124D2C6824EA03042C60C3E70F4D2E
:100B8C006C6824EA03046C60C5E70C4DAC6824EA7D
:100B9C000304AC60C7E7094DEC6824EA0303EB607F
:100BAC00C9E702B0F0BC70470010024000000140E1
:100BBC000008014000002110000031100004014029
:100BCC0012B90904016170470161704782B0084B8A
:100BDC001B68084AA2FB03235B0A00FB03F001908D
:100BEC0000BF019B5A1E0192002BF9D102B0704735
:100BFC0030040020D34D6210002800F0F58170B550
:100C0C0082B00446036813F0010F2CD0AB4B5B6829
:100C1C0003F00C03042B1DD0A84B5B6803F00C03F2
:100C2C00082B12D06368B3F5803F41D0002B55D10F
:100C3C0003F1804303F504331A6822F480321A60FE
:100C4C001A6822F480221A6037E09C4B5B6813F41C
:100C5C00803FE7D0994B1B6813F4003F03D06368C7
:100C6C00002B00F0C381236813F0020F76D0934B56
:100C7C005B6813F00C0F5FD0904B5B6803F00C03B8
:100C8C00082B54D02369002B00F08A808C4B012256
:100C9C001A60FFF7FDFC0546884B1B6813F0020F2A
:100CAC0075D1FFF7F5FC401B0228F5D90320A0E114
:100CBC00824A136843F480331360636843B3FFF7CD
:100CCC00E7FC05467D4B1B6813F4003FCBD1FFF7C7
:100CDC00DFFC401B6428F5D903208AE1B3F5A02F73
:100CEC0009D0764B1A6822F480321A601A6822F402
:100CFC0080221A60E1E703F18043A3F53C331A68C4
:100D0C0042F480221A601A6842F480321A60D4E7E6
:100D1C00FFF7BEFC0546694B1B6813F4003FA2D0DD
:100D2C00FFF7B6FC401B6428F5D9032061E1634B47
:100D3C005B6813F4803FA5D1604B1B6813F0020F66
:100D4C0004D02369012B01D0012052E15B4A1368C6
:100D5C0023F0F803616943EAC1031360236813F0BD
:100D6C00080F32D0A369002B5BD0564B01221A60BE
:100D7C00FFF78EFC0546514B5B6A13F0020F21D135
:100D8C00FFF786FC401B0228F5D9032031E14B4AC2
:100D9C00136823F0F803616943EAC1031360DDE7CC
:100DAC00474B00221A60FFF773FC0546434B1B6848
:100DBC0013F0020FD2D0FFF76BFC401B0228F5D9C1
:100DCC00032016E10120FFF701FF236813F0040F45
:100DDC0000F09880394BDB6913F0805F33D1374BCF
:100DEC00DA6942F08052DA61DB6903F080530193D7
:100DFC00019B0125344B1B6813F4807F25D0E368DD
:100E0C00012B36D0002B4CD103F1804303F5043376
:100E1C001A6A22F001021A621A6A22F004021A6299
:100E2C002CE0284B00221A60FFF732FC0546234BBE
:100E3C005B6A13F0020FC8D0FFF72AFC401B022894
:100E4C00F5D90320D5E00025D4E71F4A136843F4F5
:100E5C0080731360FFF71CFC06461B4B1B6813F4D6
:100E6C00807FCCD1FFF714FC801B6428F5D90320BC
:100E7C00BFE0124A136A43F001031362E3687BB3C9
:100E8C00FFF706FC06460D4B1B6A13F0020F38D118
:100E9C00FFF7FEFB801B41F288339842F3D9032005
:100EAC00A7E0052B12D0054B1A6A22F001021A6238
:100EBC001A6A22F004021A62E0E700BF0010024036
:100ECC000000424280044242007000404C4B1A6ABF
:100EDC0042F004021A621A6A42F001021A62CDE769
:100EEC00FFF7D6FB0646464B1B6A13F0020F08D0E1
:100EFC00FFF7CEFB801B41F288339842F3D90320D5
:100F0C0077E0E5B9E369002B72D03D4A526802F0F4
:100F1C000C02082A56D0022B17D03A4B00221A602A
:100F2C00FFF7B6FB0446364B1B6813F0007F47D027
:100F3C00FFF7AEFB001B0228F5D9032059E0304A1D
:100F4C00D36923F08053D361DCE72E4B00221A6067
:100F5C00FFF79EFB05462A4B1B6813F0007F06D05B
:100F6C00FFF796FB401B0228F5D9032041E0236ACA
:100F7C00B3F5803F1AD022494B6823F47413226ACC
:100F8C00606A024313434B601E4B01221A60FFF749
:100F9C007FFB04461A4B1B6813F0007F0ED1FFF742
:100FAC0077FB001B0228F5D9032022E0144A536872
:100FBC0023F40033A1680B435360DCE7002018E0F6
:100FCC00002016E0012B16D00D4B5B6803F480312A
:100FDC00226A914201D001200BE003F47013626A83
:100FEC0093420AD0012004E001207047012000E068
:100FFC00002002B070BD0120FBE70020F9E700BF24
:10100C00001002406000424210B487B0164C94E8C5
:10101C000F000DF1180C0CE90F00238AADF8043009
:10102C00124B5B6803F00C02082A1AD1C3F38342FB
:10103C00624412F8102C13F4803F05D10C4800FBCD
:10104C0002F007B010BC7047084B5B68C3F3404319
:10105C00634413F8143C074800FB02F0B0FBF3F0B8
:10106C00EFE70448EDE700BF7813000800100240DA
:10107C0000093D0000127A00002800F0A38070B532
:10108C000446524B1B6803F007038B420CD24F4AA9
:10109C00136823F007030B431360136803F0070373
:1010AC008B4201D0012070BD236813F0020F17D0C2
:1010BC0013F0040F04D0464A536843F4E0635360C2
:1010CC00236813F0080F04D0414A536843F460536B
:1010DC0053603F4A536823F0F003A0680343536006
:1010EC000D46236813F0010F31D06368012B20D01B
:1010FC00022B25D0364A126812F0020F64D0344904
:10110C004A6822F0030213434B60FFF7C1FA06460C
:10111C002F4B5B6803F00C036268B3EB820F16D0A5
:10112C00FFF7B6FA801B41F288339842F0D90320BE
:10113C00B9E7274A126812F4003FE0D10120B2E768
:10114C00234A126812F0007FD9D10120ABE71F4B64
:10115C001B6803F00703AB420CD91C4A136823F03D
:10116C0007032B431360136803F00703AB4201D052
:10117C00012098E7236813F0040F06D0144A536833
:10118C0023F4E063E1680B435360236813F0080F0A
:10119C0007D00F4A536823F46053216943EAC10313
:1011AC005360FFF731FF0A4B5B68C3F30313094A23
:1011BC00D35CD840084B1860084B1868FFF724FA2A
:1011CC00002070E70120704701206CE700200240EE
:1011DC000010024090130008300400203804002056
:1011EC0070B582B00446036813F0010F34D03E4B47
:1011FC00DB6913F0805F48D13B4BDA6942F08052D7
:10120C00DA61DB6903F080530193019B0125374BB5
:10121C001B6813F4807F3AD0334B1B6A13F4407372
:10122C0011D0626802F440729A420CD02E4A136AB2
:10123C0023F440702E4901260E6000260E601062C9
:10124C0013F0010F37D1284A136A23F440736168F5
:10125C000B431362002D3FD1236813F0020F06D00D
:10126C00214A536823F44043A1680B43536023681D
:10127C0013F0100F35D01C4A536823F48003E16837
:10128C000B435360002002B070BD0025BFE7174A26
:10129C00136843F480731360FFF7FAF90646134B97
:1012AC001B6813F4807FB7D1FFF7F2F9801B642819
:1012BC00F5D90320E7E7FFF7EBF906460A4B1B6A63
:1012CC0013F0020FBFD1FFF7E3F9801B41F2883313
:1012DC009842F3D90320D6E7D36923F08053D36126
:1012EC00BAE70020CFE700BF0010024000700040BA
:1012FC0040044242002103E00B4B5B584350043145
:10130C000A480B4B42189A42F6D30A4A02E00023D1
:10131C0042F8043B084B9A42F9D3FFF773F9FEF7F6
:10132C0053FFFFF7E2F87047AC13000800000020F1
:10133C003C0400203C040020BC040020FEE700001C
:10134C00024B13B10248FEF71FBF704700000000AC
:10135C00A1010008F8B500BFF8BC08BC9E46704758
:0C136C00F8B500BFF8BC08BC9E467047F6
:1013780002030405060708090A0B0C0D0E0F1010CE
:10138800010200000800002000000000000000002A
:08139800010203040607080925
:0813A0004D130008750100085F
:0413A8004D010008EB
:1013AC00080000200000000000000000F4020020F3
:1013BC005C030020C40300200000000000000000BB
:1013CC000000000000000000000000000000000011
:1013DC000000000000000000000000000000000001
:1013EC0000000000000000000000000000000000F1
:1013FC0000000000000000000000000000000000E1
:10140C0000000000000000000000000000000000D0
:10141C0000000000000000000000000000000000C0
:10142C0000000000000000000000000000000000B0
:10143C0000000000000000000000000000000000A0
:10144C000000000000000000000000000000000090
:10145C0001000000000000000E33CDAB34126DE62D
:10146C00ECDE05000B000000000000000000000096
:10147C000000000000000000000000000000000060
:10148C000000000000000000000000000000000050
:10149C000000000000000000000000000000000040
:1014AC000000000000000000000000000000000030
:0C17DC000024F4000100000010000000D8
:0400000508001301DB
:00000001FF
